:020000040800F2
:1000000068060020C1010008751B0008011A0008DD
:10001000111B0008CD040008252000080000000086
:10002000000000000000000000000000711C00083B
:10003000ED060008000000001D1C0008731C0008ED
:10004000DB010008DB010008DB010008DB01000820
:10005000DB010008DB010008DB010008DB01000810
:10006000DB010008DB010008DB010008DB01000800
:10007000DB010008DB010008DB010008DB010008F0
:10008000DB010008DB010008DB010008DB010008E0
:10009000D1040008DB010008DB010008DB010008D7
:1000A000DB010008DB010008DB010008DB010008C0
:1000B000DB010008DB010008DB010008DB010008B0
:1000C000DB010008DB010008DB010008DB010008A0
:1000D000DB010008DB010008DB010008DB01000890
:1000E000DB010008DB010008DB010008DB01000880
:1000F000DB010008DB010008DB010008DB01000870
:10010000DB010008DB010008DB010008DB0100085F
:10011000DB010008DB010008DB010008DB0100084F
:10012000DB010008DB010008DB010008DB0100083F
:10013000DB010008DB010008DB010008DB0100082F
:10014000DB010008DB010008DB010008DB0100081F
:10015000DB010008DB010008DB01000819200008B2
:10016000DB010008DB010008DB010008DB010008FF
:10017000DB010008DB010008DB01000800000000D3
:10018000DB010008DB010008DB010008DB010008DF
:10019000DB010008DB010008DB010008DB010008CF
:1001A0000000000000000000DB010008DFF80CD0B8
:1001B00000F07AF900480047D120000868060020C6
:1001C0000648804706480047FEE7FEE7FEE7FEE7F1
:1001D000FEE7FEE7FEE7FEE7FEE7FEE70D1D00088F
:1001E000AD0100082DE9F05F0546002092469B46D0
:1001F00088460646814640241BE02846414647463D
:10020000224600F0E3F853465A46C01A914110D3F3
:1002100011461846224600F0CAF82D1A67EB01086D
:100220004F4622460120002100F0C1F817EB0009DB
:100230004E41201EA4F10104DFDC484631462A4627
:100240004346BDE8F09FD2B201E000F8012B491E01
:10025000FBD270470022F6E710B513460A46044663
:100260001946FFF7F0FF204610BD2DE9FE4F81EA49
:10027000030404F0004421F0004100944FF0000B0F
:1002800023F0004350EA01045ED052EA03045BD03D
:10029000C3F30A54C1F30A552C44A4F2F334019475
:1002A000A0FB0254C1F3130141F48011C3F3130303
:1002B00043F4801301FB024400FB034E840A970AB7
:1002C00044EA815447EA8357A4FB076802958D0AE4
:1002D00005FB07854FEA932C04FB0C542705029D70
:1002E0004FEA065847EA1637B5EB08056EEB070CE0
:1002F000870E920E47EA811742EA8312A7FB02019A
:10030000B6EB0B0164EB00042B0D43EA0C335E18D3
:1003100044EB1C50DA465146E7FB0201C5F31304D7
:100320004FEA0B3343EA14534FEA0432019C43EA89
:100330000603A4F10C040294009CCDE900B400F083
:1003400064F803B0BDE8F08F00200146F9E70EB570
:10035000C10F80EAE0700844CA07002140F233432D
:100360008DE80E000A460B4600F04FF803B000BDC2
:1003700070B5C1F30A5201F000450024C1F3130126
:1003800040F2FF3341F480119A4201DA002070BD3F
:1003900040F233439A42A2F2334203DC524200F06D
:1003A00015F800E090402C43F1D0404270BD202A67
:1003B00004DB203A00FA02F1002070479140C2F1BC
:1003C000200320FA03F3194390407047202A04DBEE
:1003D000203A21FA02F00021704721FA02F3D040BE
:1003E000C2F12002914008431946704710B5141E0F
:1003F00073F1000408DA401C41F1000192185B41DE
:100400001A4301D120F0010010BD2DE9F04D9246B4
:100410009B4611B1B1FA81F202E0B0FA80F22032CB
:100420009046FFF7C4FF04460F4640EA0A0041EA3F
:100430000B0153465A46084313D0114653EA0100B4
:1004400019D0C8F140025046FFF7C0FF05460E46DE
:10045000504659464246FFF7AAFF084305D00120FF
:1004600004E020463946BDE8F08D0020054346EA09
:10047000E0762C4337430A986305E40AA0EB0800B2
:100480000022FD0A44EA47540A3002D50020014602
:10049000E9E7010510196941DDE9084500196941DD
:1004A000BDE8F04DA2E70000064C074D06E0E0680D
:1004B00040F0010394E8070098471034AC42F6D3AB
:1004C000FFF778FE7821000898210008FEE7000079
:1004D000014800F080BA00003800002000B5044850
:1004E00001F049FB02485DF804EBD43001F043BB56
:1004F000BC00002070B5D0F88C300446C0F88830BD
:100500003B48018849BAC4F88C10428850BA52BAA4
:10051000C4F89C20C4F8B400D4F89820C4F89420FF
:10052000B0F5004F03DDA0F58030C4F8B400CB1A5D
:10053000B4F9A400B3F5805F01DD401E03E013F5BC
:10054000805F02DA401CA4F8A400B4F9A400DFED37
:10055000290A00EE100A01EB40302A4DB8EEC00A1D
:1005600020EE200ADFED240A80EE201ADFED230AB8
:1005700084ED211AD4F89010401A00EE100AC4F845
:100580009800811AB8EEC00A20EE200ADFED1C0A9E
:1005900020EE200A84ED280A94F9800004EB800202
:1005A000401C84F88000916094F880001E2818D1C7
:1005B0000020A86084F880004FEA000104EB81026B
:1005C000491C92681C291044F8DBA860FFF7BFFEA5
:1005D0009FED0D1B53EC112BFFF747FEFFF7C8FEF5
:1005E000E86095ED030AB8EEC00A84ED010A70BD1B
:1005F0003000002000003B4300706045986E1240C0
:100600006F12833A200000203481221631ECB43F6F
:100610000C49A0F5007001380BD0012811D151F818
:10062000DC2F501C08600748DC30322A07DA01F062
:1006300045BD8A68501C886002480830F5E7FFF71E
:1006400059BF7047B400002010B58AB000210122C4
:100650000446CDE90612039104910E20CDE908204D
:1006600005910091019102916946204600F0B8F889
:1006700008B100F03CF8204600F092FB08B100F011
:1006800036F80221204600F034F808B100F02FF8C7
:100690000AB0002010BD000010B58AB008230493F2
:1006A0009B010093002302930393069307930B0A85
:1006B0008DF818308DF81910110A0B4C8DF81A109E
:1006C0008DF81B20616808AB491C616006AA694669
:1006D00000F021F8002804D02068401C206000F0C1
:1006E00006F80AB010BD000020000020704772B666
:1006F000FEE790F82020012A07D0022A05D0416A9F
:1007000041F48021416201207047006842690A4338
:10071000426100207047F0B590F820500468A4684A
:10072000012D05D0022D03D0416A41F4802153E010
:1007300014F0406F01D1E5004BD5C4F30164022CE5
:1007400003D9416A41F4000146E00125A5401D603E
:100750008D684FF4C0739DB1CE6835434E6845EA4D
:10076000C605066803EB0417F5514FF4C275076818
:1007700005EB04150E697E51097D012905D009E0BC
:100780000E88CD6845EA4655EBE701684E5946F4B8
:1007900080764E511179D2F805504FF4C67641EA71
:1007A0000525016806EB04168D511178D2F8012059
:1007B0004FF4C47541EA0221026805EB041551515A
:1007C000006803EB0411425842F00102425000203D
:1007D000F0BD416A41F4001141620120F0BD00000A
:1007E00010B590F82020012A07D0022A05D0416ACE
:1007F00041F480214162012010BD3B48D0F8002225
:1008000042F00102C0F80022D0F8002222F47C520B
:10081000C0F80022D0F800224B6A42EA0322C0F856
:1008200000220A7D02F01F0301229A40D0F81C32F8
:100830009343C0F81C32CB69B3B9D0F80C32934360
:10084000C0F80C328C894B6864F31F434C6900EB91
:10085000C404C4F840320C890B6864F31F434C692C
:1008600000EBC404C4F84432CB69012B16D1D0F894
:100870000C321343C0F80C320C884B6864F31F43EE
:100880004C6900EBC404C4F840320C89CB6864F3B3
:100890001F434C6900EBC404C4F844328B69002B3D
:1008A000D0F804320ED01343C0F804320B69002B89
:1008B000D0F8143208D01343C0F81432096A012961
:1008C00004D008E09343EFE79343F5E7D0F81C1218
:1008D0001143C0F81C12D0F8001221F00101C0F839
:1008E0000012002010BD000000640040704730B5C9
:1008F00090F82040012C05D0022C03D0416A41F42D
:1009000080215DE00468002955D02469A40754D0F3
:100910004FF4D874056804EB01142D5915F0040543
:10092000956005682D594ED0ED08556005682C5925
:1009300004F00204D4604FF4DA74056804EB011487
:100940002D5905F00F05156105682D59C5F30725CB
:10095000956105682C59240C54614FF4DC720468CD
:1009600002EB0112A4581C700468A458240A5C709D
:100970000468A458240C9C700468A258120EDA7003
:100980004FF4DE72046802EB0112A4581C71046873
:10099000A458240A5C710468A458240C9C7104684F
:1009A000A258120EDA71006881B1016941F020018C
:1009B0000161002030BDE468A8E7416A41F40011FC
:1009C0004162012030BD6D0D1560AFE7C16841F097
:1009D0002001C160EDE72DE9F05F054600680024C5
:1009E0004669D0F804908768D0F80CB0D0F810A011
:1009F000D0F81880F10748D0F90714D001218160A0
:100A0000B80703D5284600F0F8F90CE0780702D5BE
:100A10004FF4006407E0380702D54FF4805402E039
:100A2000284600F0E9F9F80516D529684FF48070DA
:100A30008860B80503D5284600F0E1F90CE0780598
:100A400002D544F4005407E0380502D544F480444C
:100A500002E0284600F0D2F9F80316D529684FF4D1
:100A600080308860B80303D5284600F0CAF90CE04E
:100A7000780302D544F4004407E0380302D544F477
:100A8000803402E0284600F0BBF9300707D55FEA62
:100A9000CB6004D52968102044F40074C860700746
:100AA0004FF0080707D55FEA0B7004D52868C760C8
:100AB000284600F057F9B00706D52868C0688007B7
:100AC00002D0284600F050F9700607D55FEACA60E8
:100AD00004D52968102044F480640861B00607D565
:100AE0005FEA0A7004D528680761284600F054F9C7
:100AF000F00606D528680069800702D0284600F075
:100B00004CF9B00308D55FEAC96005D52968102003
:100B10004860284600F042F9F00307D55FEA097003
:100B200004D528684760284600F06CF9300446D5A3
:100B30005FEA497040D5F00504D55FEAC87001D07E
:100B400044F00104B00504D55FEA887001D544F093
:100B50000204700504D55FEA487001D544F004042E
:100B6000300529D518F0700F26D008F07000402805
:100B700015D006DC102809D020280AD0302816D13C
:100B80000AE050280ED0602811D10EE044F008048D
:100B90000DE044F010040AE044F0200407E044F0C3
:100BA000400404E044F0800401E044F480742868C8
:100BB000816921F070018161296804204860002C5E
:100BC00005D0686A204368622846FFF78FFEBDE8BB
:100BD000F09F70B5040003D094F8200010B104E039
:100BE000012070BD204600F081F82068016821F0E6
:100BF0000201016000F022FA0546052604E000F03B
:100C00001DFA401B0A2811D8206840688007F6D4D6
:100C10002068016841F00101016000F00FFA05460B
:100C20000BE000F00BFA401B0A2806D9606A40F47A
:100C30000030606284F82060D2E720684068C00716
:100C4000EFD0207E0128206801683DD021F080018E
:100C50000160607E01282068016838D021F04001E1
:100C60000160A07E01282068016833D021F02001B6
:100C70000160E07E0128206801682ED041F010015B
:100C80000160207F01282068016829D021F0080137
:100C90000160607F01282068016824D021F00401F0
:100CA0000160D4E902010843D4E904121143084366
:100CB0006168491E08432168C86100206062012004
:100CC00084F82000002070BD41F08001C0E741F0B1
:100CD0004001C5E741F02001CAE721F01001CFE74C
:100CE00041F00801D4E741F00401D9E710B586B01E
:100CF000044614216846FFF7ADFA17492068884278
:100D000027D116480021026842F000720260006894
:100D100000F00070059011481038026842F0080297
:100D200002600068022200F0080005900320CDE96F
:100D30000210CDE90002092004906946084800F03D
:100D400087F800221146142000F0E6F9142000F084
:100D5000D5F906B010BD00000064004040380240E4
:100D6000000C02407047000000B5094987B0094BEC
:100D70004A68521C4A606A460021FFF7B8FD08B174
:100D800072B6FEE70098FFF743FC07B000BD000015
:100D900000000020300000207047704770470000BE
:100DA00070B5044690F82000012804D0606A40F431
:100DB0000020606218E0022084F8200020680168AA
:100DC00021F00101016000F039F905460EE000BF95
:100DD00000F034F9401B0A2808D9606A40F400305A
:100DE0006062052084F82000012070BD2068406802
:100DF000C007EDD1606270BD7047704770477047A3
:100E000070477047704790F83510022903D0802151
:100E1000416501207047052180F8351000680168A0
:100E200021F00101016000207047000070B5044608
:100E300000F004F90546601C02D004480078044420
:100E400000F0FCF8401BA042FAD370BD1000002057
:100E50002DE9F84F00224FF0010803254FF00F0E47
:100E60000B6808FA02F42340A3426ED14E68012EAB
:100E700005D0022E03D0112E01D0122E12D1866879
:100E80004FEA420C05FA0CF7BE43CF6807FA0CF79D
:100E9000374387604668A6430C79C4F30014944036
:100EA00034434460C668570005FA07FC8C6826EA9C
:100EB0000C06BC403443C4604C68022C01D0122C98
:100EC00013D1D40800EB8404A346D4F8209054072F
:100ED0004FEAD46A0EFA0AF629EA06090E6906FAFA
:100EE0000AF646EA0906CBF8206004680E7924EA7F
:100EF0000C0406F00306BE40264306604C68E4007E
:100F00006FD53B4C266846F480462660246822F064
:100F1000030604F480440094364C3444A446D4F8C8
:100F200008489607360F0EFA06F7BC43324FB84210
:100F300001D100272EE0314FB84201D1012729E02D
:100F40002F4FB84202D1022724E04AE02D4FB84289
:100F500001D103271EE02C4FB84201D1042719E02C
:100F60002A4FB84201D1052714E0294FB84201D1D8
:100F700006270FE0274FB84201D107270AE0264F86
:100F8000B84201D1082705E0244FB84201D1092712
:100F900000E00A27B7402743CCF80878204E346891
:100FA0004F689C43FF0300D51C4334601C4E361D24
:100FB00034684F689C43BF0300D51C433460184E0F
:100FC000083634684F689C43FF0200D51C433460E8
:100FD000134E0C3634684F689C43BF0200D51C4347
:100FE0003460521C102AFFF43BAFBDE8F88F0000BC
:100FF000443802400030014000000240000402403A
:1010000000080240000C02400010024000140240A0
:1010100000180240001C0240002002400024024050
:10102000003C0140426931EA020200D109048161B9
:1010300070470AB1816170470904FBE70148806885
:1010400070470000100000200248816802781144B7
:1010500081607047100000200B4810B5016841F412
:1010600000710160016841F480610160016841F430
:1010700080710160032000F06FF8002000F006F896
:1010800000F024F8002010BD003C024070B50D4D6A
:1010900004464FF47A712878B1FBF0F00A490968E8
:1010A000B1FBF0F000F004FB48B9102C07D200228D
:1010B0002146501E00F030F800206C6070BD012009
:1010C00070BD0000100000201C0000200A4808B578
:1010D000016841F480410160006800F480400090A4
:1010E0000548001F016841F080510160006800F070
:1010F0008050009008BD000044380240002809DB01
:1011000000F01F02012191404009800000F1E02021
:10111000C0F8001170470000F0B40E4B1B680C467D
:10112000C3F30223C3F10705042D00D90425191DBB
:10113000072901D2002300E0DB1E012606FA05F193
:10114000491E214099409E40761E16403143F0BC16
:1011500000F094BF0CED00E0064900F007020868BB
:101160004FF6FF03184040EA0220034A104308608C
:10117000704700000CED00E00000FA052DE9F04793
:101180000E46050065D0DFF81481D8F80000F7B2EC
:1011900000F00F00B04207D288F80070D8F80000C5
:1011A00000F00F00B04254D128683D4C810712D5A1
:1011B000400703D5206840F4E050206028780007FD
:1011C00003D5206840F4604020602068A96820F0C2
:1011D000F000084320602878C0072DD030496868A7
:1011E0000839012812D0022813D0032811D0096829
:1011F000890700292DDA216821F0030101432160CC
:10120000FFF71CFF814641F2883A0EE00968890326
:10121000EFE709688901ECE7FFF710FFA0EB090190
:10122000514502D90320BDE8F0872068696800F0C5
:101230000C00B0EB810FEFD1D8F80010404601F060
:101240000F01B14207D90770006800F00F00B042EB
:1012500001D00120E7E72878400705D52068E96834
:1012600020F4E050084320602878000706D5206865
:10127000296920F4604040EAC100206000F038F89D
:101280002168084AC1F30311515CC840064908604F
:1012900006480068FFF7FAFE0020C4E7003C024061
:1012A00008380240602100081C00002014000020C3
:1012B0000448054900680968044AC1F38221515C69
:1012C000C84070471C000020083802407021000808
:1012D0000448054900680968044AC1F34231515C79
:1012E000C84070471C0000200838024070210008E8
:1012F000154810B5006810F00C02144813D01449BA
:10130000042A0FD0082A0ED10F4C241F226823680C
:1013100002F03F025B0207D52068C0F38810A0FBF3
:10132000010106E0084610BD2168C1F38811A1FB48
:1013300000010023FEF756FF2168C1F30141491C5B
:101340004900B0FBF1F010BD083802400024F40061
:10135000001BB7002DE9F84F04006ED02078DFF8AD
:101360003C93C007A9F104054AD009F104000168C3
:10137000C1F38101012908D00068C0F3810002286F
:101380000AD1D9F80000400206D52868800337D575
:1013900060680028E1D033E06068B0F5803F10D08D
:1013A000B0F5A02F286810D020F48030286028687D
:1013B00020F4802028606068A8B1FFF73FFE064651
:1013C0000DE0286840F48030F4E740F48020286085
:1013D000F7E700BFFFF732FE801B642873D8286848
:1013E0008003F7D50CE0FFF729FE064605E000BFB5
:1013F000FFF724FE801B6428F0D828688003F7D408
:101400002078DFF89C8280074FF0000A3ED5A34881
:10141000001D016811F00C0F08D00068C0F38100B6
:1014200002280BD1D9F80000400207D428688007B1
:1014300016D5E068012800D112E02BE1E068B8B1D0
:101440000120C8F80000FFF7F9FD064605E000BFDF
:10145000FFF7F4FD801B0228C0D828688007F7D565
:101460002868216920F0F80040EAC10028600DE0FA
:10147000C8F800A0FFF7E2FD064604E0FFF7DEFD36
:10148000801B02281FD828688007F7D4207800071F
:1014900022D5824E83486169703671B101210160A5
:1014A000FFF7CCFD074604E0FFF7C8FDC01B02288C
:1014B00009D830688007F7D50EE0C0F800A0FFF724
:1014C000BDFD074605E082E0FFF7B8FDC01B02281E
:1014D0007DD830688007F7D42078400768D5DFF8DA
:1014E000BCB100270BF13C0BDBF80000C0000BD4B3
:1014F000DBF8001041F08051CBF80010DBF8000061
:10150000012700F080500090674E3068C00510D46D
:10151000306840F480703060FFF790FD009005E087
:10152000FFF78CFD0099401A022850D83068C0059A
:10153000F6D55A4EA0686C3601280FD005283068C1
:1015400010D020F001003060306820F004003060DE
:10155000A068B8B1FFF772FD00900FE0306840F06E
:101560000100F4E740F004003060F7E7FFF766FDA4
:101570000099411A41F28830814266D8306880076C
:10158000F4D50EE0FFF75AFD009007E0FFF756FD97
:101590000099411A41F28830814256D8306880075C
:1015A000F4D42FB1DBF8001021F08051CBF80010FB
:1015B000A069C8B33949091D0968C1F3810102292D
:1015C0004AD00228504607D0C8F8600000E03CE04E
:1015D000FFF734FD04463BE04746C8F86000FFF7DC
:1015E0002DFD064605E000BFFFF728FD801B022801
:1015F0002BD828688001F7D4D4E907010843A16AF1
:101600002A4A490802EB0141626A41EA8211084311
:1016100094F82C1040EA0161C9F8001001203866E6
:10162000FFF70CFD044606E036E000BFFFF706FDBD
:10163000001B022809D828688001F7D52CE000BFDC
:10164000FFF7FCFC001B022802D90320BDE8F88F3D
:1016500028688001F4D41FE00128F7D0D9F80000F1
:10166000E26900F48001914214D1226A00F03F0146
:1016700091420FD147F6C071626A0140914209D18F
:10168000A26A00F44031914204D1E16A00F0706036
:10169000884201D00120D9E70020D7E70438024072
:1016A00000004742800E4742007000400000FFFFEC
:1016B00010B5401EB0F1807F01D3012010BD4FF066
:1016C000E02460610F21601700F0D8FC0020A061C9
:1016D00007202061002010BD7047000070B502682F
:1016E00004461068D168536910F00F0F52D003F010
:1016F000010501F490762E435FD0C20705D0CA05DC
:1017000003D5E26B42F00102E263420705D5DA0736
:1017100003D0E26B42F00202E263820705D5DA07EA
:1017200003D0E26B42F00402E263020707D501F046
:1017300020022A4303D0E26B42F00802E263E26B2C
:10174000002A33D0800604D5880602D5204600F052
:101750001FFB20684069E16BC0F38010090700D4CB
:1017600028B3204600F006FB2068416949061AD5D7
:10177000416921F040014161606BA0B11B490165E5
:10178000606BFFF740FB002810D0606B016DBDE877
:1017900070400847830610D58B060ED52046BDE85D
:1017A000704000F0F5BA2046FFF796FF70BD204666
:1017B000FFF792FF0020E06370BD030606D50B061D
:1017C00004D52046BDE8704000F0C2BB4006F3D50A
:1017D0004806F1D5D168204621F04001D160202192
:1017E00084F8391000F00BF970BD0000651D000889
:1017F00070B5040004D094F83900002510B106E05B
:10180000012070BD84F83850204600F023F82420D1
:1018100084F839002068C16821F40051C160204675
:1018200000F002FB2068016921F490410161206809
:10183000416921F02A0141612068C16841F40051E9
:10184000C160E563202084F8390084F83A00002064
:1018500070BD000010B586B0044614216846FEF73E
:10186000F9FC18492068884229D1174800210268EC
:1018700042F020020260006800F02000059012484B
:101880001438026842F040020260006800F0400034
:1018900005904FF4844000900220CDE9010103201F
:1018A00003900820049069460848FFF7D1FA002207
:1018B00011464720FFF730FC4720FFF71FFC06B01A
:1018C00010BD0000001401404438024000180240DE
:1018D00090F83A30202B22D1F9B1F2B190F838309B
:1018E000012B1CD081628285C2850021C163222226
:1018F00080F83A2080F838100168CA6842F4807293
:10190000CA6001684A6942F001024A610068C16820
:1019100041F02001C1600020704701207047022083
:101920007047000010B5122204490548FFF7D0FFA8
:10193000BDE81040014800F073B90000A00000208D
:10194000600000202DE9F843044690F839001F4656
:1019500016460D46202850D1B5B1AEB194F83800E6
:1019600001284AD0012084F838004FF00008C4F85C
:101970003C80212084F83900FFF760FBA684814673
:10198000E68484F8388026E00120BDE8F883E08C06
:10199000401EE084A0684B46B0F5805F4FF0000227
:1019A0004FF080012046009703D000F002FBE8B919
:1019B0000DE000F0FEFAC8B928882168C0F30800DD
:1019C0004860206908B16D1C05E0AD1C03E021688A
:1019D00015F8010B4860E08C0028D8D14B46002256
:1019E00040212046009700F0E4FA08B10320CCE73C
:1019F000202084F839000020C7E70220C5E770479F
:101A0000FEE700000F4810B50D4901600321416059
:101A100000214FF400228160C0E903124FF440120C
:101A20004261017641768176C17601774177FFF791
:101A3000D0F8002803D0BDE81040FEF758BE10BD16
:101A4000006400403800002070B586B0142168465C
:101A5000FEF700FC1E480024016841F040010160CF
:101A6000016801F040010591016841F00101016048
:101A7000016801F001010591016841F00801016070
:101A8000016801F008010591016841F080010160E1
:101A9000016801F080010591016841F010010160C9
:101AA00000680C4E00F010004FF4904505900022A5
:101AB00029463046FFF7BDFA01200095CDE9010423
:101AC000694630460394FFF7C3F906B070BD0000C5
:101AD00030380240001002400C4810B50A4901603D
:101AE0004FF4E1314160002181600C22C160C0E906
:101AF00004128161C161FFF77BFE002803D0BDE8BD
:101B00001040FEF7F4BD10BD00140140600000203D
:101B1000FEE7000070B5144C144E4FF4005594F8D5
:101B2000B00198B101281DD1FEF7D8FC002229464A
:101B30003046FFF77EFAB4F8A40102B2B4F8D00040
:101B4000BDE8704001B20A48FEF7A6BD0020C4F807
:101B5000C800C4F89C0129463046BDE87040012207
:101B6000FFF767BA70BD0000B40000200008024013
:101B700038000020FEE710B5D0F8B420D0F8C0102F
:101B8000891AC0F8C410D0F8BC20D0ED2A0A8B1AEC
:101B900000EE103A90ED2B1AD0F8B830B8EEC00A2B
:101BA0000B44544203EB440360EE200A00EE101A8B
:101BB000B8EEC00A41EE000A00EE103A90ED2C1A81
:101BC000B8EEC00A41EE000A90ED320AB8EEC00A43
:101BD00030EE800ABDEEC00A10EE103AC0F8C830F0
:101BE000C0E92E21D0F8CC108B4201DDC0F8C8101E
:101BF000D0F8C82049428A4201DAC0F8C810D0F8AB
:101C0000C8200021322A01D8C0F8C810D0F8C82056
:101C10003232322A01D8C0F8C81010BD7047000017
:101C20001CB500231946425C552A0FD0491C1429C3
:101C3000F9DBC118497810290AD0202905D03029AC
:101C400003D10A49002081F8B0011CBD0B46F0E722
:101C5000002269469C180444A4788C54521C062A1D
:101C6000F8DB084600F0E0F91CBD0000B4000020DD
:101C70007047FFF7E9B9000030B593B030216846EE
:101C8000FEF7E8FA14210CA8FEF7E4FA1D48002537
:101C9000016841F080510160006800F080501190AF
:101CA0001948016841F4404101600068022400F4D1
:101CB0004040119001200090000401908001CDE986
:101CC000064006200890A820CDE9090404200B90C6
:101CD0006846FFF73FFB08B172B6FEE70CA90F207C
:101CE00081E831004FF4A0500F904FF480501090D5
:101CF00005210CA8FFF742FA002801D072B6FEE7D2
:101D000013B030BD40380240007000400548016803
:101D100041F47001016003494FF0006080390860B0
:101D20007047000088ED00E09FED0D1A5523037009
:101D300020EE010A20234370BDEEC00A10EE101AF7
:101D400020EE810A0B0A8370BDEEC00AC17010EE4E
:101D5000102A110A0171427100218171C17170470D
:101D60000000C84210B5806B0021C185C184FFF717
:101D7000B3FC10BD0168CA6822F49072CA600168A1
:101D80004A6922F001024A61202180F83A10704726
:101D900010B590F83A10222901D0022010BD8168B8
:101DA000B1F5805F11D00169002901681FD0496831
:101DB00001F07F03816A4A1C82620B70C18D491E4B
:101DC0000904090CC18518D02BE00269816A002A38
:101DD0000268526805D0D2B20A80816A491C8162C9
:101DE000ECE7C2F308020A80816A891CF7E74A68B7
:101DF000816A4B1C83620A70E0E70168CA6822F0BE
:101E00002002CA600168CA6822F48072CA60016850
:101E10004A6922F001024A61202180F83A10FFF756
:101E200081FD002010BD00002DE9F041044600684E
:101E30000169E26821F44051114301612169A06800
:101E4000E26908436169114308432168CA6849F29D
:101E50000C639A430243CA6020684169A26921F475
:101E6000407111434161E069192764253226B0F5BC
:101E7000004F354A354920684FF0000806D08842A7
:101E800001D0904236D1FFF723FA35E0884201D0E5
:101E9000904202D1FFF71CFA01E0FFF709FA6168EE
:101EA0004A18A0FB070148EB0803FEF79BF901461F
:101EB000B0FBF5F00201B1FBF5F06FF018035843E9
:101EC00001EB800006EBC000B0FBF5F000F0F8007D
:101ED00002EB4002B1FBF5F0584301EB800006EB4A
:101EE000C000B0FBF5F000F00700216810448860E6
:101EF000BDE8F081FFF7DCF961688B0F8A00A0FB79
:101F00000701FEF76FF90146B0FBF5F06FF018021C
:101F1000504301EB800006EB0010B0FBF5F000F041
:101F2000F002B1FBF5F002EB0012B1FBF5F06FF03F
:101F30001803584301EB800006EB0010B0FBF5F0EE
:101F400000F00F00D1E70000001401400010014034
:101F500090F83910212901D0022070478168B1F52D
:101F6000805F016A0BD04A1C0262026809785160E6
:101F7000C18C491E0904090CC1840ED017E00988E0
:101F80000268C1F30801516001690029016A02D0A9
:101F9000491C0162ECE7891CFBE70168CA6822F072
:101FA0008002CA600068C16841F04001C160002041
:101FB00070472DE9F041984617460E460446069DA7
:101FC0001DE0681C1BD02DB1FFF738F8A0EB08000E
:101FD000A84214D92068C16821F4D071C16020687A
:101FE000416921F001014161202084F8390084F821
:101FF0003A00002084F838000320BDE8F081206812
:10200000006836EA000004D00020B842D9D0002091
:10201000F3E70120F9E700000148FFF75FBB00008C
:1020200060000020FEE7000001884ABA0549C1F8B7
:10203000C820408840BAC1F89C01012081F8B00155
:1020400070470000B40000200B4A0020F2EE0E0A98
:10205000B7EE000A41F288333521414302EB81019A
:10206000401CC1ED2C0A81ED2D0A81ED2E0AC1F82C
:10207000D4300228F0DB7047B40000200907090EB5
:10208000002804DB00F1E02080F80014704700F025
:102090000F0000F1E02080F8141D704702E008C82E
:1020A000121F08C1002AFAD170477047002001E0D2
:1020B00001C1121F002AFBD17047000003490988A3
:1020C00049BAC0F89810C0F890107047300000204E
:1020D000FEF7C2FFFFF7D0FDFFF7B6FCFFF792FC5B
:1020E000FFF7FAFC122218491848FFF7F1FB1848CD
:1020F000FEF7AAFAFFF7A8FF164C174DDFF85C9021
:102100004FF4FA7700264FF400682068401C2060E6
:10211000B84213DD0F48D5ED5F0A95ED2A0A083065
:10212000FFF702FE0B491223082208310748FFF788
:1021300009FC414648462660FEF774FFFFF7EAFCBB
:102140000120FEF773FEE0E7A00000206000002001
:102150003800002000000020B400002000100240E1
:102160000000000000000000010203040607080947
:102170000000000001020304982100080000002074
:10218000380000009C200008D02100083800002002
:1021900030060000AC200008000000000000000035
:1021A000000000000000000001000000100000001E
:1021B000000000000024F400000000000000000007
:1021C000000000000000000000000000000000000F
:04000005080001AD41
:00000001FF
